:020000040800F2
:1000000000100020E11200087112000873120008AD
:1000100000000000000000000000000000000000E0
:100020000000000000000000000000007512000841
:10003000000000000000000077120008791200089C
:1000400031130008000000003113000831130008CC
:100050003113000831130008311300083113000870
:1000600000000000311300083113000831130008AC
:10007000311300083113000831130008000000009C
:1000800031130008000000000000000031130008D8
:10009000000000003113000831130008311300087C
:1000A00000000000311300080000000031130008B8
:1000B0000000000000000000000000000000000040
:1000C00010B5064C2378002B07D1054B002B02D02E
:1000D000044800E000BF0123237010BD040000208D
:1000E00000000000A0130008044B10B5002B03D043
:1000F0000349044800E000BF10BDC04600000000F6
:1001000008000020A013000802B471464908490005
:10011000095C49008E4402BC7047C0460022430877
:100120008B4274D303098B425FD3030A8B4244D3BF
:10013000030B8B4228D3030C8B420DD3FF22090201
:1001400012BA030C8B4202D31212090265D0030BC0
:100150008B4219D300E0090AC30B8B4201D3CB03B6
:10016000C01A5241830B8B4201D38B03C01A5241F8
:10017000430B8B4201D34B03C01A5241030B8B42FA
:1001800001D30B03C01A5241C30A8B4201D3CB02E5
:10019000C01A5241830A8B4201D38B02C01A5241CA
:1001A000430A8B4201D34B02C01A5241030A8B42CD
:1001B00001D30B02C01A5241CDD2C3098B4201D3E5
:1001C000CB01C01A524183098B4201D38B01C01A63
:1001D000524143098B4201D34B01C01A52410309DA
:1001E0008B4201D30B01C01A5241C3088B4201D389
:1001F000CB00C01A524183088B4201D38B00C01A36
:10020000524143088B4201D34B00C01A5241411A5C
:1002100000D20146524110467047FFE701B5002069
:1002200000F006F802BDC0460029F7D076E7704717
:100230007047C04610B5040000F076FCFA21890032
:10024000FFF76CFF00F056F8012000222100404229
:1002500000F020F8002010BD1023064A10B51168E8
:1002600000200B431360FFF7E5FF00F051FF002073
:1002700010BDC04600200240024A136801331360DB
:100280007047C04620000020014B18687047C046E8
:100290002000002070B58901002814DA0F23C0B2B5
:1002A0000340083B114A9B089B009B180322104007
:1002B0009040FC321500114085408140DC69AC4320
:1002C0002143D96170BD032583082840A840FC352F
:1002D0002E00074A9B009B18C0228640294081407F
:1002E00092009C58B44321439950EBE700ED00E0A5
:1002F00000E100E0094A431E012093420DD8C021CD
:10030000074A08485360036A09061B021B0A0B438D
:10031000036200200723906013607047FFFFFF0017
:1003200010E000E000ED00E0F0B50B6887B002934C
:1003300000230191029ADA4001D107B0F0BD0122F9
:100340009A4003920399029A0A40009200D18CE0ED
:10035000019A1021526816008E43022E0ED10725F5
:100360001D40AD000139A940DC08A4000419276A2A
:100370008F4301990969A9400F43276203245F0055
:10038000BC40E4430568013E2540AC4603251540CA
:10039000BD4061460D430560012E0FD80199866866
:1003A000CD682640BD4035438560466803991509F0
:1003B0008E4301210D409D4035434560C56801993C
:1003C0002C408D688021BD4049052C43C4600A4201
:1003D0004BD00121264C0326A5691E400D43A56183
:1003E000A4699D080C400594059C0F242149AD008B
:1003F000B6006D18B4409021AF68C905A74300242A
:1004000088420CD01C490134884208D01B49013471
:10041000884204D01A490334884200D1023CB440D7
:1004200000993C430E00AC60164CCD4327683E4318
:10043000D10301D43E002E4026606768009E3E43F3
:10044000910301D43E002E406660A768009E3E43A3
:10045000D10201D43E002E40A660E668009F3743DB
:10046000920201D42E403700E760013362E7C046B4
:10047000001002400000014000040048000800484D
:10048000000C004800040140002A01D0816170473F
:100490008162FCE770B504000120002C3FD02500EC
:1004A00041352B78DBB2002B05D12200403213708E
:1004B000200000F045FE242301212B702368E06812
:1004C0001A68A6688A431A6061681A4A0A401A6163
:1004D0009968194A11409960012821D180210902A7
:1004E000314399605868154901435960D968002023
:1004F0000A40DA60616922690A43A16909020A4374
:10050000DA60216AE2690A431A60012219680A4323
:100510001A60202360642B7020634234207070BD09
:1005200084210902314399600228DBD1802109012D
:100530005960D7E7FFFFFFF0FF7FFFFF0080000259
:10054000F0B50400413422780300D2B20220202A00
:1005500018D11D0040352E78012E13D01B68223093
:1005600020701E68233886431E601E68064F3E407A
:100570001E601E6831431960196808431860002026
:1005800022702870F0BDC046FFEFFFFFF0B50500F8
:1005900041352A780300D2B20220202A17D11C004C
:1005A00040342678012E12D01B68223028701E6835
:1005B000233886431E601E68054F09023E403143C2
:1005C000196019680843186000202A702070F0BD77
:1005D000FFF0FFFFF0B5036885B00500DB072FD4FF
:1005E0002B689B0700D581E02B681B0700D5BCE07A
:1005F0002B685B0700D5DFE02B68DB061AD56A693C
:10060000B54C0423012A00D04BE1616B02260B4359
:100610006363636B1A436263FFF736FE0700636B25
:10062000334200D136E1F821626BAB698A43DB00CB
:1006300013436363296A002900D059E1002013E0C5
:100640000C21A54C62680A40042A06D063680B405E
:10065000082B0BD16368DB0308D523689B03BFD548
:100660006B68002BBCD1012005B0F0BD6B68012B7D
:1006700013D1802322685B0213432360FFF704FE3B
:1006800080260700B60223683342A9D1FFF7FCFD9C
:10069000C01B6428F7D90320E6E7002B16D1236896
:1006A0008E4A80261340236023688D4AB602134089
:1006B0002360FFF7E9FD07002368334200D18FE78D
:1006C000FFF7E2FDC01B6428F6D9E4E7052B05D14E
:1006D00080232268DB0213432360CAE723687F4A32
:1006E0001340236023687E4A1340C6E70C227A4CED
:1006F0006368134206D063681340082B10D1636807
:10070000DB030DD423689B0702D5EB68012BAAD12C
:10071000F82122682B698A43DB001343236063E7D7
:10072000EA680123002A0FD02268022613432360BF
:10073000FFF7AAFD070023683342E9D1FFF7A4FDC4
:10074000C01B0228F7D9A6E7226802269A43226036
:10075000FFF79AFD07002368334200D144E7FFF713
:1007600093FDC01B0228F6D995E7EA6901235A4C8C
:10077000002A10D0626A022613436362FFF784FDE9
:100780000700636A334200D032E7FFF77DFDC01BEC
:100790000228F6D97FE7626A02269A436262FFF76F
:1007A00073FD0700636A334200D121E7FFF76CFD58
:1007B000C01B0228F6D96EE780220021464C520564
:1007C000E3690091134208D1E3691343E361E369EC
:1007D00013400393039B012300938027414E7F0026
:1007E00033683B4206D0AB68012B13D1226A134316
:1007F000236230E033683B433360FFF745FD0190EF
:1008000033683B42EFD1FFF73FFD019BC01A6428DC
:10081000F6D940E70122002B14D1236A0227934323
:100820002362236A033293432362FFF72DFD060000
:10083000236A3B4225D0FFF727FD2B4B801B9842B4
:10084000F6D928E7052B0BD1216A013B0B43236224
:10085000236A1A432262FFF717FD022706000DE004
:10086000236A934304222362236A9343C0E7FFF77A
:100870000BFD1D4B801B984200D90CE7236A3B42BD
:10088000F5D0009B012B00D0B6E6E369174A134070
:10089000E361B1E6FFF7F8FCC01B022800D8BEE612
:1008A000F9E6053203D1626B9A436263BBE6626B81
:1008B0000226134301226363636B93436363FFF771
:1008C000E3FC0700636B334200D1B3E6FFF7DCFCC7
:1008D000C01B0228F6D9DEE600100240FFFFFEFF33
:1008E000FFFFFBFF0070004088130000FFFFFFEFD9
:1008F0000C22264C012063681340082B00D1B3E67C
:100900002368234A1340236002292FD1FFF7BCFC40
:1009100080260700B6042368334221D10F22E36A00
:100920009343EA6A1343E362696AAB6A62680B4302
:10093000184980250A4013436360802322685B04C2
:1009400013432360FFF7A0FC0600AD0423682B428D
:1009500000D073E6FFF798FC801B0228F6D99AE6D0
:10096000FFF792FCC01B0228D5D994E6FFF78CFC58
:1009700080250600AD0423682B4200D15EE6FFF718
:1009800083FC801B0228F6D985E6C0460010024091
:10099000FFFFFFFEFFFFC2FF70B5144C88B01022AE
:1009A0002100684600F0EAFC210004AD102210315D
:1009B000280000F0E3FC0C220D4E73681A40082A50
:1009C00011D10F206A46990C0140545CF26A024032
:1009D000A95CDB0305D50748FFF7A0FB604308B01F
:1009E00070BD0548FAE70348F9E7C046B8130008A8
:1009F0000010024000127A0000093D00F7B5012204
:100A0000434C060023680F0013408B421CD332680E
:100A1000930723D4D30729D4012322681A4097428D
:100A200067D333683B4C5B076AD4FFF7B5FF636855
:100A3000394A1B061B0FD35CD840384B1860002086
:100A4000FFF7F8FB002008E0236893430B43236083
:100A5000236813409942DAD00120FEBDF0202D49D1
:100A60004B688343B06803434B60D3E7294D7268FA
:100A70002B68012A1AD19B03EED503216B688B43A7
:100A800013436B60FFF700FC73680190012B15D1D5
:100A90000C226B681340042BBED0FFF7F5FB019BC3
:100AA000C01A1F4B9842F3D90320D6E7022A02D17D
:100AB0009B01E2D4D0E79B07DFD4CDE7022B12D015
:100AC0000C226B681342A7D0FFF7DEFB019BC01A14
:100AD000134B9842F4D9E7E7FFF7D6FB019BC01A06
:100AE0000F4B9842E0D80C226B681340082BF3D1CF
:100AF00092E722689A43226022681A42ACD190E7BA
:100B00006368084A1340F268134363608DE7C04688
:100B10000020024000100240DC130008000000200A
:100B200088130000FFF8FFFF014B18687047C046AC
:100B300000000020044B054A5B685B055B0FD35C3B
:100B4000034A1068D840704700100240EC130008B8
:100B500000000020F0B5036885B00500DB0328D550
:100B600080220021374C5205E3690091134208D1DD
:100B7000E3691343E361E36913400393039B012398
:100B800000938027304E7F0033683B4226D0C0223E
:100B9000236A920013402D4E32D1236A1E406B68A7
:100BA0001E43009B2662012B03D1E369284A1340B0
:100BB000E3612A68D30706D5032022490B6B8343E0
:100BC000A86803430B630020930617D510211D4A24
:100BD000136B8B43E9680B4313630FE033683B43AC
:100BE0003360FFF751FB019033683B42CFD1FFF7F1
:100BF0004BFB019BC01A6428F6D9032005B0F0BD59
:100C000069680A409342C8D08023226A206A110092
:100C10005B0203432362236A0E4831400340236290
:100C20002162D307B9D5FFF72FFB07000222236A01
:100C30001342B2D1FFF728FB074BC01B9842F5D9EE
:100C4000DBE7C0460010024000700040FFFCFFFFE1
:100C5000FFFFFFEFFFFFFEFF88130000F8B5040061
:100C60000120002C4BD000232500A3625D352B789A
:100C7000DBB2002B05D122005C321370200000F0A3
:100C800095FA0223402221682B700B6800209343C1
:100C90000B60E023E268DB009A4231D9F02636018E
:100CA000B24233D10600206B002803D19A422FD9DB
:100CB00002232363A7686368A0693B4327693B431A
:100CC00067693B43E7693B43276A3B43A76A3B436A
:100CD0008027BF0007403B430B60636A000C1A4348
:100CE000636B1A4304231840104306434E60CB69DC
:100CF000084A00201340CB61012320662B70F8BD09
:100D0000802676019A42CED0A062CCE70600FBE7AF
:100D10000123CEE7FFF7FFFF70B504000568C26945
:100D200083680069296803436069034335481343B6
:100D300001400B432B606B683349206A0B40E1682C
:100D40000B436B60A369A9680343304801400B4320
:100D50000321AB602E4B1B6B0B402E49C85C8023DC
:100D60001B029A422CD1082827D8FFF7CDF9052677
:100D70000B261E2626262100FFF7DCFE63684000B6
:100D80005B0802E063685808234BC0186168FFF7EE
:100D9000C5F983B200200F22190091430A001B07F6
:100DA00021685B0F1343CB6070BDFFF7F5FDE5E7EE
:100DB0006368580880235B02E7E701200023EAE725
:100DC00008281DD8FFF7A0F9051C0A1C141C1C1CC0
:100DD0001700FFF7AFFE61684B0802E061680F4B38
:100DE0004808C018FFF79AF980B2E8600020DBE7F6
:100DF000FFF7D2FDEFE7802361681B024808F0E7A8
:100E00000120D1E7F369FFFFFFCFFFFFFFF4FFFFF2
:100E100000100240D81300080024F40000127A00E9
:100E2000436A30B5DA0706D50168284C4A68224083
:100E3000846A22434A609A0706D50168244C4A68AE
:100E40002240C46A22434A605A0706D50168214CF1
:100E50004A682240046B22434A601A0706D501689B
:100E60001D4C4A682240446B22434A60DA0606D58C
:100E700001681A4C8A682240846B22438A609A0671
:100E800006D50168164C8A682240C46B22438A60EA
:100E90005A0610D50168134D4A68046C2A40224353
:100EA0004A6080225203944205D14A680E4C224087
:100EB000446C22434A601B0606D502680B495368FE
:100EC0000B40816C0B43536030BDC046FFFFFDFFFC
:100ED000FFFFFEFFFFFFFBFFFF7FFFFFFFEFFFFFB7
:100EE000FFDFFFFFFFFFEFFFFFFF9FFFFFFFF7FFAA
:100EF00070B5041E01D1012070BD050069352B7845
:100F0000DBB2002B04D102006832137000F07EF9CE
:100F10002423012122682B70136820008B43136067
:100F2000FFF7FAFE0128E6D0636A002B02D020000A
:100F3000FFF776FF23680B495A6800200A40082112
:100F40005A609A688A439A60012219680A431A60B3
:100F500022002023E0666A3268342B701370207000
:100F6000CAE7C046FFF7FFFF30B5102495B0302226
:100F7000002108A800F00BFA22000021684600F0CA
:100F800006FA2200002104A800F001FA03230893C6
:100F900080235B021193802301250C945B030E3C9C
:100FA00008A81094129309950B95FFF713FB0723DC
:100FB0000194002429006846009302940394FFF7EB
:100FC0001DFD212304A8049306940794FFF7C2FD96
:100FD00015B030BDF0B589B0FFF73EF9FFF7C4FF9B
:100FE0001422002103A800F0D2F980203F4BC00357
:100FF00059690024014359615A6910260240802032
:101000000092009A596980020143596180215A690E
:10101000C902024090200192019A5A69C0050A4310
:101020005A615B6900220B4002931021029BFFF77B
:101030002BFA002202212E48FFF726FA90201123D6
:1010400003A9C00501270493039605940694FFF7AE
:101050006BF9022303A92648039304970594069489
:10106000FFF762F9234D244B28002B60234BAC6023
:101070006B60EF602C616C61AC61EC612C62FFF71E
:1010800009FA21002800FFF75BFA21002800FFF78A
:101090007DFA1B481B4B8460036082235B00436026
:1010A000FD33FF33C360013BFF3B8361FA3BFF3BF2
:1010B000C362DB19436304614461C6610462446234
:1010C00084620463FFF7CAFD0F48104B846003601D
:1010D000E1235B0243600C23C460046143618461CB
:1010E000C46104624462FFF703FFFEE700100240A0
:1010F0000004004824000020005400400E09002095
:10110000E000002000300140700000200038014065
:1011100001200A4B82B099690143996180219A6943
:10112000490502400092009ADA690A43DA61DB69F4
:101130000B400193019B02B07047C0460010024073
:1011400010B5040088B01422002103A800F01FF994
:10115000144B22689A4222D18021134C8902626981
:1011600090200A4362616369C0050B400193019BB3
:10117000C023DB00039312230493113B0593023336
:10118000069303A901330793FFF7CEF88021E269A4
:1011900089030A43E261E3690B400293029B08B0B2
:1011A00010BDC046005400400010024010B50400BD
:1011B00088B01422002103A800F0E9F8114B22683E
:1011C0009A421DD18020104B4001996901439961D9
:1011D00080219A69890202400192019A5A699020FD
:1011E0000A435A615B69C0050B400293029BE023EE
:1011F0000393DE3B049303A901330693FFF794F8AE
:1012000008B010BD003001400010024010B50400CD
:1012100088B01422002103A800F0B9F8124B22680C
:101220009A421FD18020114BC001996901439961F5
:1012300080219A69890202400192019A5A6990209C
:101240000A435A615B69C0050B400293029B0C2361
:1012500003930A3B04930133069303A9023B0793CC
:10126000FFF762F808B010BD0038014000100240DE
:101270007047FEE77047704710B5FEF7FDFF10BDE1
:101280000121114B11481A680A431A605A6802403A
:101290005A601A680E4802401A601A680D480240E7
:1012A0001A605A680C4802400F205A60DA6A82437A
:1012B000DA621A6B094802401A635A6B8A435A630E
:1012C00000229A607047C046001002400CB8FF0828
:1012D000FFFFF6FEFFFFFBFFFFFFC0FFECFEFFFF7F
:1012E0000D4885460D480E490E4A002302E0D458A9
:1012F000C4500433C4188C42F9D30B4A0B4C00235E
:1013000001E013600432A242FBD3FFF7B9FF00F003
:1013100011F8FFF75FFEFEE700100020000000203C
:1013200004000020FC1300080400002044010020F9
:10133000FEE7000070B500260C4D0D4C641BA41098
:10134000A64209D1002600F02BF80A4D0A4C641B76
:10135000A410A64205D170BDB300EB5898470136E2
:10136000EEE7B300EB5898470136F2E7F4130008B4
:10137000F4130008F4130008F8130008002310B554
:101380009A4200D110BDCC5CC4540133F8E703008D
:101390008218934200D1704719700133F9E70000B9
:1013A000F8B5C046F8BC08BC9E467047F8B5C046C4
:0813B000F8BC08BC9E46704722
:1013B80002030405060708090A0B0C0D0E0F10108E
:1013C8000102030405060708090A0B0C0D0E0F108D
:1013D80000040802000000000000000001020304ED
:0C13E800060708090000000001020304D1
:0413F400E900000804
:0413F800C100000828
:0413FC0000127A0061
:04000005080012E1FC
:00000001FF
