:020000040800F2
:10000000001000204922000855210008572100084F
:1000100000000000000000000000000000000000E0
:10002000000000000000000000000000592100084E
:1000300000000000000000005B2100085D210008B6
:100040009922000800000000992200089922000867
:100050009922000899220008992200089922000894
:100060000000000099220008992200089922000847
:100070009922000899220008992200080000000037
:1000800099220008000000000000000099220008EA
:100090000000000099220008992200089922000817
:1000A00000000000992200080000000099220008CA
:1000B0000000000000000000000000000000000040
:1000C00010B5064C2378002B07D1054B002B02D02E
:1000D000044800E000BF0123237010BD9000002001
:1000E00000000000682C0008044B10B5002B03D062
:1000F0000349044800E000BF10BDC04600000000F6
:1001000094000020682C000802B471464908490098
:10011000095C49008E4402BC7047C0460022430877
:100120008B4274D303098B425FD3030A8B4244D3BF
:10013000030B8B4228D3030C8B420DD3FF22090201
:1001400012BA030C8B4202D31212090265D0030BC0
:100150008B4219D300E0090AC30B8B4201D3CB03B6
:10016000C01A5241830B8B4201D38B03C01A5241F8
:10017000430B8B4201D34B03C01A5241030B8B42FA
:1001800001D30B03C01A5241C30A8B4201D3CB02E5
:10019000C01A5241830A8B4201D38B02C01A5241CA
:1001A000430A8B4201D34B02C01A5241030A8B42CD
:1001B00001D30B02C01A5241CDD2C3098B4201D3E5
:1001C000CB01C01A524183098B4201D38B01C01A63
:1001D000524143098B4201D34B01C01A52410309DA
:1001E0008B4201D30B01C01A5241C3088B4201D389
:1001F000CB00C01A524183088B4201D38B00C01A36
:10020000524143088B4201D34B00C01A5241411A5C
:1002100000D20146524110467047FFE701B5002069
:1002200000F006F802BDC0460029F7D076E7704717
:100230007047C04610B5040000F08AFCFA2189001E
:10024000FFF76CFF00F066F8012000222100404219
:1002500000F030F8002010BD1023064A10B51168D8
:1002600000200B431360FFF7E5FF01F0C3FE002001
:1002700010BDC04600200240024A136801331360DB
:100280007047C046B8000020014B18687047C04650
:10029000B800002037B50190FFF7F6FF019C05007C
:1002A000631C5A1E9341E418FFF7EEFF401BA04267
:1002B000FAD337BD70B58901002814DA0F23C0B214
:1002C0000340083B114A9B089B009B1803221040E7
:1002D0009040FC321500114085408140DC69AC4300
:1002E0002143D96170BD032583082840A840FC350F
:1002F0002E00074A9B009B18C0228640294081405F
:1003000092009C58B44321439950EBE700ED00E084
:1003100000E100E0094A431E012093420DD8C021AC
:10032000074A08485360036A09061B021B0A0B436D
:10033000036200200723906013607047FFFFFF00F7
:1003400010E000E000ED00E0F0B50B6887B002932C
:1003500000230191029ADA4001D107B0F0BD0122D9
:100360009A4003920399029A0A40009200D18CE0CD
:10037000019A1021526816008E43022E0ED10725D5
:100380001D40AD000139A940DC08A4000419276A0A
:100390008F4301990969A9400F43276203245F0035
:1003A000BC40E4430568013E2540AC4603251540AA
:1003B000BD4061460D430560012E0FD80199866846
:1003C000CD682640BD4035438560466803991509D0
:1003D0008E4301210D409D4035434560C56801991C
:1003E0002C408D688021BD4049052C43C4600A42E1
:1003F0004BD00121264C0326A5691E400D43A56163
:10040000A4699D080C400594059C0F242149AD006A
:10041000B6006D18B4409021AF68C905A743002409
:1004200088420CD01C490134884208D01B49013451
:10043000884204D01A490334884200D1023CB440B7
:1004400000993C430E00AC60164CCD4327683E43F8
:10045000D10301D43E002E4026606768009E3E43D3
:10046000910301D43E002E406660A768009E3E4383
:10047000D10201D43E002E40A660E668009F3743BB
:10048000920201D42E403700E760013362E7C04694
:10049000001002400000014000040048000800482D
:1004A000000C004800040140002A01D0816170471F
:1004B0008162FCE7436959404161704770B50400AF
:1004C0000120002C3FD0250041352B78DBB2002BDA
:1004D00005D1220040321370200001F0A3FD242337
:1004E00001212B702368E0681A68A6688A431A60A5
:1004F00061681A4A0A401A619968194A114099605C
:10050000012821D180210902314399605868154999
:1005100001435960D96800200A40DA6061692269A4
:100520000A43A16909020A43DA60216AE2690A43BF
:100530001A60012219680A431A60202360642B7034
:1005400020634234207070BD8421090231439960D8
:100550000228DBD1802109015960D7E7FFFFFFF0B6
:10056000FF7FFFFF00800002F0B5040041342278D5
:100570000300D2B20220202A18D11D0040352E7867
:10058000012E13D01B68223020701E68233886434A
:100590001E601E68064F3E401E601E683143196093
:1005A000196808431860002022702870F0BDC0460A
:1005B000FFEFFFFFF0B5050041352A780300D2B206
:1005C0000220202A17D11C0040342678012E12D098
:1005D0001B68223028701E68233886431E601E6800
:1005E000054F09023E4031431960196808431860FD
:1005F00000202A702070F0BDFFF0FFFFF0B5036807
:1006000085B00500DB072FD42B689B0700D581E060
:100610002B681B0700D5BCE02B685B0700D5DFE02B
:100620002B68DB061AD56A69B54C0423012A00D071
:100630004BE1616B02260B436363636B1A43626396
:10064000FFF722FE0700636B334200D136E1F82149
:10065000626BAB698A43DB0013436363296A002939
:1006600000D059E1002013E00C21A54C62680A403B
:10067000042A06D063680B40082B0BD16368DB03A8
:1006800008D523689B03BFD56B68002BBCD1012024
:1006900005B0F0BD6B68012B13D1802322685B028B
:1006A00013432360FFF7F0FD80260700B60223689E
:1006B0003342A9D1FFF7E8FDC01B6428F7D9032016
:1006C000E6E7002B16D123688E4A8026134023606C
:1006D00023688D4AB60213402360FFF7D5FD07005B
:1006E0002368334200D18FE7FFF7CEFDC01B64289B
:1006F000F6D9E4E7052B05D180232268DB021343FA
:100700002360CAE723687F4A1340236023687E4A38
:100710001340C6E70C227A4C6368134206D0636824
:100720001340082B10D16368DB030DD423689B07AB
:1007300002D5EB68012BAAD1F82122682B698A43E4
:10074000DB001343236063E7EA680123002A0FD02C
:100750002268022613432360FFF796FD07002368F3
:100760003342E9D1FFF790FDC01B0228F7D9A6E775
:10077000226802269A432260FFF786FD070023685D
:10078000334200D144E7FFF77FFDC01B0228F6D9B2
:1007900095E7EA6901235A4C002A10D0626A0226C2
:1007A00013436362FFF770FD0700636A334200D0B2
:1007B00032E7FFF769FDC01B0228F6D97FE7626ABE
:1007C00002269A436262FFF75FFD0700636A3342C5
:1007D00000D121E7FFF758FDC01B0228F6D96EE7CC
:1007E00080220021464C5205E3690091134208D152
:1007F000E3691343E361E36913400393039B01231C
:1008000000938027414E7F0033683B4206D0AB689F
:10081000012B13D1226A1343236230E033683B4338
:100820003360FFF731FD019033683B42EFD1FFF7B2
:100830002BFD019BC01A6428F6D940E70122002B4A
:1008400014D1236A022793432362236A033293431A
:100850002362FFF719FD0600236A3B4225D0FFF70C
:1008600013FD2B4B801B9842F6D928E7052B0BD1A3
:10087000216A013B0B432362236A1A432262FFF77A
:1008800003FD022706000DE0236A9343042223623E
:10089000236A9343C0E7FFF7F7FC1D4B801B984288
:1008A00000D90CE7236A3B42F5D0009B012B00D016
:1008B000B6E6E369174A1340E361B1E6FFF7E4FCEB
:1008C000C01B022800D8BEE6F9E6053203D1626BF0
:1008D0009A436263BBE6626B0226134301226363A1
:1008E000636B93436363FFF7CFFC0700636B334293
:1008F00000D1B3E6FFF7C8FCC01B0228F6D9DEE63C
:1009000000100240FFFFFEFFFFFFFBFF00700040F2
:1009100088130000FFFFFFEF0C22264C01206368C4
:100920001340082B00D1B3E62368234A1340236009
:1009300002292FD1FFF7A8FC80260700B604236800
:10094000334221D10F22E36A9343EA6A1343E362FD
:10095000696AAB6A62680B43184980250A401343F1
:100960006360802322685B0413432360FFF78CFCE1
:100970000600AD0423682B4200D073E6FFF784FC29
:10098000801B0228F6D99AE6FFF77EFCC01B0228DE
:10099000D5D994E6FFF778FC80250600AD042368DE
:1009A0002B4200D15EE6FFF76FFC801B0228F6D9D0
:1009B00085E6C04600100240FFFFFFFEFFFFC2FFBA
:1009C00070B5144C88B010222100684601F090FCEC
:1009D000210004AD10221031280001F089FC0C2206
:1009E0000D4E73681A40082A11D10F206A46990CDF
:1009F0000140545CF26A0240A95CDB0305D507485C
:100A0000FFF78CFB604308B070BD0548FAE7034868
:100A1000F9E7C046802C00080010024000127A005E
:100A200000093D00F7B50122434C060023680F0082
:100A300013408B421CD33268930723D4D30729D4A5
:100A4000012322681A40974267D333683B4C5B0707
:100A50006AD4FFF7B5FF6368394A1B061B0FD35CE6
:100A6000D840384B18600020FFF7E4FB002008E076
:100A7000236893430B432360236813409942DAD0E1
:100A80000120FEBDF0202D494B688343B06803432D
:100A90004B60D3E7294D72682B68012A1AD19B035A
:100AA000EED503216B688B4313436B60FFF7ECFBC0
:100AB00073680190012B15D10C226B681340042B35
:100AC000BED0FFF7E1FB019BC01A1F4B9842F3D940
:100AD0000320D6E7022A02D19B01E2D4D0E79B078C
:100AE000DFD4CDE7022B12D00C226B681342A7D0C3
:100AF000FFF7CAFB019BC01A134B9842F4D9E7E7F2
:100B0000FFF7C2FB019BC01A0F4B9842E0D80C22A2
:100B10006B681340082BF3D192E722689A43226056
:100B200022681A42ACD190E76368084A1340F26821
:100B3000134363608DE7C04600200240001002406E
:100B4000E92C00082800002088130000FFF8FFFFB0
:100B5000014B18687047C04628000020044B054A26
:100B60005B685B055B0FD35C034A1068D840704735
:100B700000100240F92C000828000020F0B503689E
:100B800085B00500DB0328D580220021374C5205B3
:100B9000E3690091134208D1E3691343E361E36918
:100BA00013400393039B012300938027304E7F0063
:100BB00033683B4226D0C022236A920013402D4E58
:100BC00032D1236A1E406B681E43009B2662012BB4
:100BD00003D1E369284A1340E3612A68D30706D5A5
:100BE000032022490B6B8343A86803430B63002057
:100BF000930617D510211D4A136B8B43E9680B43ED
:100C000013630FE033683B433360FFF73DFB019014
:100C100033683B42CFD1FFF737FB019BC01A6428F2
:100C2000F6D9032005B0F0BD69680A409342C8D0E8
:100C30008023226A206A11005B0203432362236A35
:100C40000E483140034023622162D307B9D5FFF734
:100C50001BFB07000222236A1342B2D1FFF714FBE9
:100C6000074BC01B9842F5D9DBE7C0460010024095
:100C700000700040FFFCFFFFFFFFFFEFFFFFFEFFE4
:100C800088130000E021036810B55A688A435A604F
:100C900082224168520091420CD18021826809026F
:100CA0008A4203D08021C9008A4203D140211A68B8
:100CB0008A431A608021826A89018A4206D11968B2
:100CC000074C2140196019680A431A600300012289
:100CD0005D331A7000235C300370032010BDC046E2
:100CE000FFDFFFFFF8B505000C00160080272B681A
:100CF0009868384006D0621CFAD0002C03D1280036
:100D0000FFF7C0FFF8BDFFF7BFFA801B8442EED8A3
:100D1000F5E7F0B5C02706000D00140085B001937B
:100D2000FF0002AB3168DA1D886828400CD0BD4254
:100D300003D10B7BDBB213701378631CF4D0002C4F
:100D400004D13000FFF79EFF05B0F0BDFFF79CFA1D
:100D5000019BC01A8442E4D8F3E770B513000D007C
:100D600016000A00C02149010400FFF7D2FF002845
:100D700005D02023226E0320134323660FE03200A8
:100D800029002000FFF7AEFF0028F2D1C021330078
:100D90002A00C9002000FFF7BCFF0028E9D170BD80
:100DA000F8B582231700426804000E005B009A42E7
:100DB0000DD1802283681202934203D08022D20098
:100DC000934204D14021226813688B4313603A0098
:100DD00031002000FFF786FF051E05D02023226E7C
:100DE00003251343236616E0822362685B009A4260
:100DF00011D18022A3681202934203D08022D20034
:100E0000934208D1C0213B003200C9002000FFF707
:100E100080FF0028E2D12800F8BD0000F8B50400EA
:100E20000120002C4BD000232500A3625D352B78D8
:100E3000DBB2002B05D122005C321370200001F0E0
:100E400027F90223402221682B700B68002093436E
:100E50000B60E023E268DB009A4231D9F0263601CC
:100E6000B24233D10600206B002803D19A422FD919
:100E700002232363A7686368A0693B4327693B4358
:100E800067693B43E7693B43276A3B43A76A3B43A8
:100E90008027BF0007403B430B60636A000C1A4386
:100EA000636B1A4304231840104306434E60CB691A
:100EB000084A00201340CB61012320662B70F8BD47
:100EC000802676019A42CED0A062CCE70600FBE7EE
:100ED0000123CEE7FFF7FFFFF0B51F00030087B047
:100EE0005C33019202931B7804000D000226012B53
:100EF00000D17AE00123029A1370FFF7C5F92300AD
:100F00005D33009003931B78DBB2012B67D11E0089
:100F1000002D64D0019B002B61D00323039A137032
:100F20006A4692880023A2876A4692882366E287EF
:100F3000A21D2364A56302329387D3872365E364EC
:100F40008023A2681B029A4205D180232268DB011C
:100F500011680B431360402223681968114202D1C3
:100F600019680A431A60E021E068C9006268884293
:100F700047D9002A02D0E28F012A06D12A880235F9
:100F8000DA60E38F013B9BB2E3870226E38F002BFD
:100F900016D1009A39002000FFF7DFFE002800D0AC
:100FA0006CE0A368002B06D105932368DA680592EC
:100FB0009B680593059B266E731E9E41F6B20EE05C
:100FC00023689A68324207D02A880235DA60E38FB4
:100FD000013B9BB2E387D9E7002F09D10326012308
:100FE000039A13700023029A1370300007B0F0BD0B
:100FF0007B1CCBD0FFF748F9009BC01A8742C5D8AD
:10100000ECE7002A02D0E28F012A09D1E28F012AFF
:1010100019D92A880235DA60E38F023B9BB2E38755
:101020000226E38F002BB4D023689A6832421AD08C
:10103000E28F012A0FD92A880235DA60E38F023B5A
:101040009BB2E387EDE72A7801351A73E38F013B02
:101050009BB2E387E4E72A7801351A73E38F013BFB
:101060009BB2E387DDE7002FB8D07B1CD9D0FFF718
:101070000BF9009BC01A8742D3D8AFE72023236621
:101080008FE70000F7B51F00030000925C331A7869
:1010900004000D000226012A00D1AEE001221A70E0
:1010A000FFF7F2F8230001905D331B786168DBB233
:1010B000012B0BD082225200914200D096E0A26810
:1010C000002A00D092E0042B00D08FE00126002DF2
:1010D00000D18BE0009B002B00D187E0002F00D1D6
:1010E00084E023005D331A78042A01D005221A70A7
:1010F000009A002322642200E026A01D0832236605
:10110000D787C787E068E3642365A563E787A78778
:10111000F6002368B04202D8D28F012A31D95A682A
:10112000714E32405A60402223681E68164202D136
:101130001E6832431A60E0222600D2000836904230
:101140005DD9002902D0E28F012A06D12A88023512
:10115000DA60E38F013B9BB2E3870127E38F002B2B
:1011600014D1F38F002B11D1019A08992000FFF7B9
:10117000F4FD002800D0B3E0266E731E9E41F6B247
:1011800034E080225E6852013243CBE7002F0FD05B
:10119000E38F002B0CD0022123689A680A4207D003
:1011A00000272A886D18DA60E38F013B9BB2E38742
:1011B000F38F002B0FD0012123689A680A420AD0CE
:1011C000DB68009A0F001380130002330093F38F43
:1011D000013B9BB2F387089B0133BFD0FFF754F864
:1011E000019BC01A089B8342B8D803262300012222
:1011F0005D331A7000235C3423703000FEBD00297B
:1012000002D0E28F012A09D1E28F012A4CD92A8823
:101210000235DA60E38F023B9BB2E3870127E38F5D
:10122000002B03D1F38F002B00D19DE7002F12D0AC
:10123000E38F002B0FD0022123689A680A420AD05C
:10124000E28F012A38D92A886D18DA60E38F023BD1
:101250009BB2E3870027F38F002B1AD0012123686C
:101260009A680A4215D0F28F8A422DD9DA6800991D
:1012700001270A800A0002320092F28F023A92B2EB
:10128000F287F28FBA4204D88022596852010A4389
:101290005A60089B0133C2D0FEF7F6FF019BC01ACB
:1012A000089B8342BBD8A0E72A7801351A73E38FE5
:1012B000013B9BB2E387B1E72A7801351A73E38FCC
:1012C000013B9BB2E387C5E71B7B009A01271370A4
:1012D000F38F013B9BB2F387130001330093D8E7F0
:1012E0002023236648E7C046FFEFFFFFF0B51F004D
:1012F000822387B00392426804000E005B009A428A
:101300000FD18368002B0CD1030004225D331A70C7
:101310000097039B0A00FFF7B5FE0500280007B001
:10132000F0BD23005C3305931B780225012BF5D01B
:101330000123059A1370FEF7A7FF220004905D3287
:101340001378DBB2012B5DD11D00002E5AD0039B18
:10135000002B57D004236946137000238989A21DEE
:1013600023662664D187694689890232D187E022C3
:10137000E168A363A387E387E3642365D20023685E
:1013800091422AD95A68364802405A608023A2689E
:101390001B029A4204D1226832481368034013604A
:1013A000402322681068184202D11068034313607A
:1013B000E0232500DB00083599423FD8EB8F002B56
:1013C00010D1049A39002000FFF7EAFC002844D12C
:1013D000256E6B1E9D41EDB214E0802258685201CB
:1013E0000243D2E7012123689A680A4207D01B7B97
:1013F0003370EB8F7618013B9BB2EB87DEE7002F53
:1014000007D1032501235D3423700023059A13704F
:1014100084E77B1CD2D0FEF737FF049BC01A8742BB
:10142000CCD8EEE7012123689A680A420AD0DB682B
:101430003380EB8F0236013B9BB2EB87EB8F002BA7
:10144000F0D1BEE7002FDCD07B1CF7D0FEF71CFFED
:10145000049BC01A8742F1D8D3E720232366B7E75D
:10146000FFEFFFFFFFBFFFFF70B504000568C26913
:10147000836800692968034360690343354813435F
:1014800001400B432B606B683349206A0B40E168D5
:101490000B436B60A369A9680343304801400B43C9
:1014A0000321AB602E4B1B6B0B402E49C85C802385
:1014B0001B029A422CD1082827D8FEF725FE0526C4
:1014C0000B261E2626262100FFF748FB63684000F6
:1014D0005B0802E063685808234BC0186168FEF798
:1014E0001DFE83B200200F22190091430A001B0742
:1014F00021685B0F1343CB6070BDFFF761FAE5E72E
:101500006368580880235B02E7E701200023EAE7CD
:1015100008281DD8FEF7F8FD051C0A1C141C1C1C0D
:101520001700FFF71BFB61684B0802E061680F4B77
:101530004808C018FEF7F2FD80B2E8600020DBE743
:10154000FFF73EFAEFE7802361681B024808F0E7E7
:101550000120D1E7F369FFFFFFCFFFFFFFF4FFFF9B
:1015600000100240B02C00080024F40000127A00A1
:10157000436A30B5DA0706D50168284C4A6822402C
:10158000846A22434A609A0706D50168244C4A6857
:101590002240C46A22434A605A0706D50168214C9A
:1015A0004A682240046B22434A601A0706D5016844
:1015B0001D4C4A682240446B22434A60DA0606D535
:1015C00001681A4C8A682240846B22438A609A061A
:1015D00006D50168164C8A682240C46B22438A6093
:1015E0005A0610D50168134D4A68046C2A402243FC
:1015F0004A6080225203944205D14A680E4C224030
:10160000446C22434A601B0606D502680B495368A6
:101610000B40816C0B43536030BDC046FFFFFDFFA4
:10162000FFFFFEFFFFFFFBFFFF7FFFFFFFEFFFFF5F
:10163000FFDFFFFFFFFFEFFFFFFF9FFFFFFFF7FF52
:1016400070B5041E01D1012070BD050069352B78ED
:10165000DBB2002B04D102006832137000F048FDA9
:101660002423012122682B70136820008B43136010
:10167000FFF7FAFE0128E6D0636A002B02D02000B3
:10168000FFF776FF23680B495A6800200A400821BB
:101690005A609A688A439A60012219680A431A605C
:1016A00022002023E0666A3268342B7013702070A9
:1016B000CAE7C046FFF7FFFF73B50500124C2E0ABC
:1016C000A368984723699847226A2B0C002A02D006
:1016D000626A002A11D1D8B2E3699847F0B2E3698F
:1016E0009847E8B2E3699847A3699847050063699A
:1016F0009847E3689847280076BD01A803704670B4
:10170000857003219047EFE700000020F7B5134CE8
:101710000500A3680F009847236998470421636A6E
:101720000D432A0C2E0A002B10D1D0B2E369984742
:10173000F0B2E3699847E8B2E36998473800E36993
:10174000984763699847E3689847F7BD01A8027016
:1017500046708570C7709847F3E7C04600000020C8
:10176000F0B506001A4C85B0A36817000D00984725
:1017700023699847330A0193236A320C002B02D065
:10178000636A002B17D1D0B2E36998476B4618798A
:10179000E3699847F0B2E3699847EF19BD4205D174
:1017A00063699847E368984705B0F0BDA369984717
:1017B00028700135F2E703A802706A461279867034
:1017C00042700321984739002800236A9847E7E7C9
:1017D00000000020F0B51B4C85B0A36806000D008A
:1017E00017009847236998470420636A0643310A23
:1017F000320C0191002B17D1D0B2E36998476B46A8
:101800001879E3699847F0B2E3699847EF19BD4248
:1018100005D163699847E368984705B0F0BD28781B
:10182000E36998470135F2E703A802706A46127926
:10183000867042700321984739002800636A9847F0
:10184000E7E7C0460000002070470078C0B270474C
:1018500001707047002070477047704770477047AD
:1018600070477047064B002801D0002904D1054A73
:101870001A61054A5A61704718615961FBE7C04611
:10188000000000206318000849180008084B1A8857
:10189000920500D4FEE7002801D0002904D1054AB2
:1018A0009A61054ADA6170479861D961FBE7C046E1
:1018B000000000205518000859180008084B1A8825
:1018C000920500D4FEE7002801D0002904D1054A82
:1018D0001A62054A5A62704718625962FBE7C046AD
:1018E000000000205D1800085B180008F0B5902784
:1018F0008026A025F02487B03F0104A93800760097
:101900000622FFF72DFFED0001A930000422FFF7AA
:1019100027FF240102A928000422FFF721FF042247
:1019200003A92000FFF71CFF80210020FFF7EEFE37
:101930000020FFF7C1FE04A938000622FFF74AFF86
:1019400001A930000422FFF745FF02A92800042264
:10195000FFF740FF042203A92000FFF73BFF07B079
:10196000F0BD000070B505000C00FFF7BFFF002DB3
:1019700003D1002C1BD100200AE029002A000023FB
:1019800008311078C3185BB2102B02DD01204042F1
:1019900070BD01329142F4D1104E29783000FFF72A
:1019A000B5FE0F4B203601359E42F6D1E1E721000E
:1019B0002200002308311078C3185BB2102BE5DC3D
:1019C00001329142F7D1074D21782800FFF79EFEA2
:1019D000024B203501349D42F6D1CCE7081F0000B0
:1019E00008200000081E0000F02110B5014004008E
:1019F000A8204001FFF78AFEB820210A4001FFF726
:101A000085FE10BDA82010B54001FFF755FE04006B
:101A1000B8204001FFF750FEF02300021C4080B2C6
:101A2000001980B210BD10B5C1B20400B020400151
:101A3000FFF76CFEC020210A4001FFF767FE10BDD2
:101A4000B02010B54001FFF737FE0400C020400170
:101A5000FFF732FE0002001980B210BDB82010B5A9
:101A60008001FFF729FE0123184010BDB82010B5F2
:101A70008001FFF721FE3823184030384342584197
:101A800040B210BD10B5B824A4012000FFF714FE29
:101A90007F2101402000FFF739FE2000FFF70CFEF8
:101AA000802149420143C9B22000FFF72FFE10BD3B
:101AB000017810B501394B42594143788901012B16
:101AC00008D137331943B8208001FFF71FFEFFF715
:101AD000D9FF10BDC2788378012A05D1012B01D12D
:101AE0001733EFE70823EDE7012BECD10F33E9E7DC
:101AF00010B50400B8208001FFF7DEFD0123820944
:101B00001A40227038221040202801D0904218D16B
:101B100063700300103BDBB2102B14D801221100BC
:101B200099400B4B19420ED0A2700838C0B2182849
:101B30000CD8012319008140064A114206D0E370F7
:101B400010BD0023E4E70023A370EEE70023F6E7CF
:101B5000010101000100010110B50400B82080015D
:101B6000FFF7AAFD430618D538218843C0B20143C8
:101B7000012C01D130210143B8208001FFF7C6FDBF
:101B8000FFF780FFB8208001FFF796FD3022012C7F
:101B900000D038220023104201D101235B421800FB
:101BA00010BD000070B50C000F2862D8FEF7ACFA2B
:101BB000080C17131B1F222E3A484B4F0A53575E2F
:101BC000FFF794FE002005E0002900D00831200036
:101BD000FFF7C8FE70BD0888FFF706FFF2E7FFF7C2
:101BE00011FF2080EEE70888FFF71DFFEAE7FFF707
:101BF00027FFF6E7982009884001090AFFF786FDCC
:101C0000A02021784001FFF781FDDBE7982040010B
:101C1000FFF752FD0500A0204001FFF74DFD2D020A
:101C20002818DEE70020144B9A780A70DA784A7098
:101C30001A798A705A79CA709B7948710B71C9E711
:101C4000FFF720FFBEE70800FFF732FFBAE7080002
:101C5000FFF74EFFB6E70878FFF77EFFBAE7FFF71A
:101C600005FFC0B2FF2804D02070ABE7FFF7F6FEF7
:101C7000F7E701204042ADE70000002010B5002248
:101C800002210248FEF710FC10BDC04600040048C7
:101C900010B5012202210248FEF706FC10BDC04625
:101CA00000040048012310B50A005B42010002480D
:101CB000FFF71CFB10BDC0467801002013B56B4632
:101CC000DC1D20000121FFF7EDFF207816BD00008C
:101CD000012310B50A005B4201000248FFF7FCF83F
:101CE00010BDC0467801002007B56B46D871073398
:101CF00001211800FFF7ECFF07BD0000F0B54249D5
:101D00008DB04248FFF7AEFD41494248FFF7BEFDA6
:101D100041494248FFF7D2FD022306A803704370F1
:101D20008370C370037143718371C3710100FFF746
:101D300019FE3B49102208A800F0DAFA08A9012090
:101D4000FFF730FF431C03D1364800F043FBFEE7AA
:101D500090241025E4056B46DE1C31000F20FFF7B0
:101D600021FF431C02D1304800F034FB2900200041
:101D7000FEF7A0FBC820FEF78DFA29002000FEF731
:101D800099FBC820FEF786FA29002000FEF792FB97
:101D90003378002BDFD0A8200822002301AE03AD4A
:101DA000C02770706870902004A94A70D4328A707D
:101DB000313A02AC0A71A63A0B70CB704A71B3701B
:101DC000F270E370FA32AB700133EB702270627024
:101DD000A27037702F70F93A0001FFF7FBFCF0207A
:101DE000310004220001FFF7F5FC802029000422C5
:101DF0004000FFF7EFFCA02004222100C000FFF705
:101E0000E9FC0DB0F0BDC046911C00087D1C000827
:101E1000E91C0008BD1C0008D11C0008A51C000816
:101E2000A02C0008B42C0008CF2C0008FA2010B514
:101E30008000FEF72FFA10BD30B5102495B0302287
:101E4000002108A800F05DFA22000021684600F099
:101E500058FA2200002104A800F053FA0323089343
:101E600080235B021193802301250C945B030E3CBD
:101E700008A81094129309950B95FEF7BFFB072352
:101E80000194002429006846009302940394FEF70D
:101E9000C9FD212304A8049306940794FEF76EFE5F
:101EA00015B030BDF0B589B0FEF7D6F9FFF7C4FF25
:101EB0001422002103A800F024FA8020444BC00320
:101EC00059690024014359615A6910260240802053
:101ED0000092009A596980020143596180215A6930
:101EE000C902024090200192019A5A69C0050A4332
:101EF0005A615B6900220B4002931021029BFEF79E
:101F0000D3FA002202213348FEF7CEFA90201123A3
:101F100003A9C00501270493059406940396FEF7D0
:101F200013FA022303A92B480393059406940497FC
:101F3000FEF70AFA284D294B28002B60284BAC608D
:101F40006B602C616C61AC61EC612C62EF60FEF740
:101F5000B5FA21002800FEF707FB21002800FEF754
:101F600029FB2048204B8460036082235B00436090
:101F7000FD33FF33C360013BFF3B8361FA3BFF3B13
:101F8000C362DB19046144610462446284620463D5
:101F90004363C661FEF742FF1448154B846003603B
:101FA000E1235B0243600C23C46004618461C4616B
:101FB0000462446290244361FFF742FBFFF79EFEF8
:101FC000E405FFF733FF10212000FEF773FAF8E76E
:101FD0000010024000040048BC00002000540040F3
:101FE0000E09002078010020003001400801002087
:101FF0000038014001200A4B82B099690143996180
:1020000080219A69490502400092009ADA690A43E0
:10201000DA61DB690B400193019B02B07047C04657
:102020000010024010B5040088B01422002103A85B
:1020300000F067F9144B22689A4222D18021134C98
:102040008902626990200A4362616369C0050B409E
:102050000193019BC023DB00039312230493113BE4
:1020600005930233069303A901330793FEF76CF936
:102070008021E26989030A43E261E3690B4002932C
:10208000029B08B010BDC046005400400010024042
:1020900010B5040088B01422002103A800F031F923
:1020A000114B22689A421DD18020104B4001996942
:1020B0000143996180219A69890202400192019A43
:1020C0005A6990200A435A615B69C0050B4002932C
:1020D000029BE0230393DE3B049303A901330693A1
:1020E000FEF732F908B010BD003001400010024088
:1020F00010B5040088B01422002103A800F001F9F3
:10210000124B22689A421FD18020114BC00199695D
:102110000143996180219A69890202400192019AE2
:102120005A6990200A435A615B69C0050B400293CB
:10213000029B0C2303930A3B04930133069303A9E8
:10214000023B0793FEF700F908B010BD00380140CC
:10215000001002407047FEE77047704710B5FEF769
:102160008BF810BD70B50E0015000C00A31B9D422E
:1021700001DC280070BD00E000BF20700134F5E7ED
:1021800070B50E0015000C00A31B9D4201DC280059
:1021900070BD207800E000BF0134F5E70A4B10B5B0
:1021A00019680200002901D10849196069461868B8
:1021B00082188A4206D900F071F80C2303600120CE
:1021C000404210BD1A60FCE7AC000020E001002096
:1021D00001204042704780239B0100204B607047E4
:1021E00001207047002070470121114B11481A68E7
:1021F0000A431A605A6802405A601A680E48024040
:102200001A601A680D4802401A605A680C48024069
:102210000F205A60DA6A8243DA621A6B0948024078
:102220001A635A6B8A435A6300229A607047C04609
:10223000001002400CB8FF08FFFFF6FEFFFFFBFF97
:10224000FFFFC0FFECFEFFFF0D4885460D480E491D
:102250000E4A002302E0D458C4500433C4188C4200
:10226000F9D30B4A0B4C002301E013600432A24265
:10227000FBD3FFF7B9FF00F017F8FFF713FEFEE7F7
:10228000001000200000002090000020702D0008A9
:1022900090000020E0010020FEE70000014B1868DC
:1022A0007047C0462C00002070B500260C4D0D4C28
:1022B000641BA410A64209D1002600F0D5FC0A4DEB
:1022C0000A4C641BA410A64205D170BDB300EB58A4
:1022D00098470136EEE7B300EB5898470136F2E72E
:1022E000682D0008682D0008682D00086C2D000876
:1022F000002310B59A4200D110BDCC5CC454013308
:10230000F8E703008218934200D170471970013337
:10231000F9E7000070B505000E00002804D08369BD
:10232000002B01D100F024FAAB69AC68002B02D17C
:10233000280000F01DFA244B9C420FD16C68A38941
:102340001B0702D52369002B20D12100280000F0B3
:10235000A1F800281AD00120404270BD1B4B9C42BE
:1023600001D1AC68EBE71A4B9C42E8D1EC68E6E798
:10237000013B0136A360002B04DAA269934216DB0D
:102380000A2914D023685A1C226019703178A36876
:102390000029EDD1013BA360002B0FDA22000A31A6
:1023A000280000F021F8431CD5D00A20D5E72200F0
:1023B000280000F019F8431CE8D1CCE70A20236874
:1023C0005A1C22601870C8E7282D0008482D000804
:1023D000082D000810B5034B01001868FFF79AFF9D
:1023E00010BDC0462C000020F8B505000E001400FA
:1023F000002804D08369002B01D100F0B9F9224BE9
:102400009C422DD16C68A369A360A3891B0731D5B9
:102410002369002B2ED023682269F7B2981A6369CA
:10242000F6B2984205DB2100280000F033F90028BD
:1024300026D1A3680130013BA36023685A1C2260A7
:102440001F706369984204D0A389DB071AD50A2E4E
:1024500018D12100280000F01DF9002812D00FE04B
:102460000A4B9C4201D1AC68CDE7094B9C42CAD1D2
:10247000EC68C8E72100280000F00CF80028CAD05A
:10248000012676423000F8BD282D0008482D0008AE
:10249000082D0008364B70B51D6806000C00002D95
:1024A00005D0AB69002B02D1280000F061F9314B57
:1024B0009C420FD16C680C23E25E93B219072DD4B5
:1024C000D90611D409230120336037331343A38184
:1024D000404270BD284B9C4201D1AC68EBE7274BD2
:1024E0009C42E8D1EC68E6E75B0713D5616B0029F5
:1024F00008D023004433994202D0300000F03AFA69
:10250000002363632422A3899343A3810023636090
:10251000236923600823A2891343A3812369002B25
:102520000BD1A0218022A389890092000B40934205
:1025300003D02100300000F0D9F90123A289134013
:1025400011D00023A36063695B42A361002023696B
:102550008342BED10C23E25E1306BAD54023134357
:10256000A3810138B5E7920700D46369A360EDE762
:102570002C000020282D0008482D0008082D0008F8
:10258000F7B58A8905000C00130760D44B68002B4F
:1025900004DC0B6C002B01DC0020FEBDE76A002F81
:1025A000FAD000232E682B6080235B011A4034D0C0
:1025B000606DA3895B0706D56368C01A636B002B47
:1025C00001D0236CC01A0200216A00232800E76AA8
:1025D000B847A189431C06D12B681D2B31D82C4A42
:1025E000DA40D3072DD50023636023692360CB0431
:1025F00005D5431C02D12B68002B00D16065616BAF
:102600002E600029C8D023004433994202D028000C
:1026100000F0B0F900206063BFE70123216A2800C1
:10262000B847431CC5D12B68002BC2D01D2B01D04D
:10263000162B01D12E60AFE74023A2891343A3815B
:10264000ABE740230B430120A3814042A5E70F697C
:10265000002FA1D00B680F60DB1B019300239207B2
:1026600000D14B69A360019B002B00DC94E7019B28
:102670003A00216A2800A66AB047002803DC4023FC
:10268000A2891343DFE7019B3F181B1A0193EAE776
:10269000010040200B6970B505000C00002B01D132
:1026A000002070BD002804D08369002B01D100F008
:1026B0005FF80B4B9C4209D16C680C22A35E002B87
:1026C000EED021002800FFF75BFFEAE7054B9C42B4
:1026D00001D1AC68F1E7044B9C42EED1EC68ECE729
:1026E000282D0008482D0008082D000810B50249C3
:1026F00000F0B2F810BDC04695260008002310B5C2
:10270000040003604360836081814366C28103618A
:1027100043618361190008225C30FFF7F2FD054B2D
:1027200024626362044BA362044BE362044B2363A1
:1027300010BDC046E92A0008112B0008492B0008EB
:10274000752B000870B568254A1E55430E002900F8
:10275000743100F059F9041E08D000212A000160EC
:1027600046600C30A0606832FFF7CBFD200070BDE2
:10277000836913B50400002B28D18364C364036507
:10278000134B144A1B6882620193984201D10123C2
:102790008361200000F020F86060200000F01CF849
:1027A000A060200000F018F80022E06004216068BA
:1027B000FFF7A4FF01220921A068FFF79FFF022273
:1027C0001221E068FFF79AFF0123A36113BDC04601
:1027D000042D0008ED260008F8B51E4B07001E6802
:1027E000B369002B02D13000FFF7C2FF4836B4684E
:1027F0007368013B04D53368002B07D03668F6E7D1
:102800000C22A55E002D0DD06834F2E704213800BB
:10281000FFF798FF30600028F0D10C2304003B60E4
:102820002000F8BD012320005B42E3810233A38135
:1028300065662560A560656025616561A561082202
:1028400029005C30FFF75DFD6563A563A564E56461
:10285000E6E7C046042D0008F7B50400070000268F
:1028600001914834002C01D13000FEBD6368A56899
:102870000093009B013B009301D52468F2E7AB89EC
:10288000012B08D90E22AB5E013304D02900380099
:10289000019B984706436835EBE7000070B50E00D2
:1028A0001D000E23C95E90B01400002907DA002332
:1028B0002B60B3891B0611D48023DB000FE001AA33
:1028C00000F084F90028F2DBF022029B1202134090
:1028D000054A9B185A4253412B60EDE740230020E4
:1028E000236010B070BDC04600E0FFFFF7B50226C0
:1028F0008B8905000C00334206D023004733236048
:10290000236101236361F7BD01AB6A46FFF7C6FF90
:1029100000990700280000F077F8002808D10C2261
:10292000A35E9A05EFD4032293431E43A681E4E7F6
:102930000F4BAB628023A28920601343A381009BCD
:1029400020616361019B002B0DD00E23E15E280006
:1029500000F04EF9002806D00322A38993431A0001
:1029600001231343A381A0893843A081CBE7C0464C
:10297000ED26000870B50500002910D00C1F236853
:10298000002B00DAE418280000F058F91D4A1368FB
:10299000002B05D163601460280000F050F970BD71
:1029A000A34209D9216860188342F3D118685B6893
:1029B00041182160EEE713005A68002A01D0A242B4
:1029C000F9D919685818A0420BD12068091858186D
:1029D00019608242E0D110685268411819605A604B
:1029E000DAE7A04202D90C232B60D5E721686018F2
:1029F000824203D1106852684118216062605C60B5
:102A0000CAE7C046B0000020032370B5CD1C9D432B
:102A1000083506000C2D1ED20C25A9421DD8300009
:102A200000F00CF9254A14682100002919D1244C22
:102A30002368002B03D1300000F044F82060290007
:102A4000300000F03FF8431C2CD10C2330003360E1
:102A500000F0F5F803E0002DDFDA0C2333600020EE
:102A600070BD0B685B1B1AD40B2B03D90B60CC1801
:102A7000256003E08C420ED163681360300000F0E3
:102A8000DEF8200007220B30231D9043C31AE7D045
:102A90005A42E250E4E74B6863600C00EEE70C003A
:102AA0004968C2E70323C41C9C43A042E0D0211A1A
:102AB000300000F007F8431CDAD1C6E7B000002070
:102AC000B4000020002370B5064C05000800236008
:102AD000FFF764FB431C03D12368002B00D02B605D
:102AE00070BDC046DC01002070B50C000E25495FAA
:102AF00000F0A6F8002803DB636D1B18636570BD4A
:102B0000A389024A1340A381F9E7C046FFEFFFFF04
:102B1000F8B51F008B8905000C001600DB0505D5F4
:102B20000E23C95E0022022300F074F8A389054A2F
:102B300028001340A38132000E23E15E3B0000F029
:102B40001FF8F8BDFFEFFFFF70B50C000E25495FC1
:102B500000F060F8A389421C03D1054A1340A38109
:102B600070BD802252011343A3816065F8E7C0461F
:102B7000FFEFFFFF10B50E23C95E00F015F810BD82
:102B800070B50500080011000022064C22601A00F2
:102B9000FFF7F6FA431C03D12368002B00D02B600B
:102BA00070BDC046DC010020002370B5064C050056
:102BB00008002360FFF70CFB431C03D12368002BA4
:102BC00000D02B6070BDC046DC010020002370B532
:102BD000064C0500080011002360FFF7FCFA431CB7
:102BE00003D12368002B00D02B6070BDDC010020D6
:102BF000002370B5064C050008002360FFF7F0FACB
:102C0000431C03D12368002B00D02B6070BDC0464D
:102C1000DC01002070B50500080011000022064C00
:102C200022601A00FFF7DEFA431C03D12368002B51
:102C300000D02B6070BDC046DC010020704770479B
:102C400070B50500080011000022064C22601A0031
:102C5000FFF788FA431C03D12368002B00D02B60B8
:102C600070BDC046DC010020F8B5C046F8BC08BC09
:102C70009E467047F8B5C046F8BC08BC9E467047F3
:102C800002030405060708090A0B0C0D0E0F1010AD
:102C90000102030405060708090A0B0C0D0E0F10AC
:102CA0000202020202020202020202020202020204
:102CB0000004080257495A4348495020496E697434
:102CC00069616C697A6564206661696C2E0D0055D6
:102CD0006E6B6E6F776E20504859204C696E6B207A
:102CE0007374617574732E0D000000000000000005
:102CF00000010203040607080900000000010203A6
:102D0000040000003000002000000000000000006F
:102D100000000000000000000000000000000000B3
:102D200000000000000000000000000000000000A3
:102D30000000000000000000000000000000000093
:102D40000000000000000000000000000000000083
:102D50000000000000000000000000000000000073
:082D600000000000000000006B
:042D6800E900000876
:042D6C00C10000089A
:102D700001025735353030005F180008611800082F
:102D800063180008491800084B180008511800087B
:102D9000000000000000000000127A003000002057
:102DA00000000000282D0008482D0008082D00080C
:102DB0000000000000000000000000000000000013
:102DC0000000000000000000000000000000000003
:102DD00000000000000000000000000000000000F3
:102DE00000000000000000000000000000000000E3
:102DF00000000000000000000000000000000000D3
:040000050800224984
:00000001FF
