:020000040800F2
:1000000000100020911D0008ED1C0008EF1C0008E6
:1000100000000000000000000000000000000000E0
:10002000000000000000000000000000F11C0008BB
:100030000000000000000000F31C0008F51C000890
:10004000E11D000800000000E11D0008E11D00089E
:10005000E11D0008E11D0008E11D0008E11D000888
:1000600000000000E11D0008E11D0008E11D00087E
:10007000E11D0008E11D0008E11D0008000000006E
:10008000E11D00080000000000000000E11D000864
:1000900000000000E11D0008E11D0008E11D00084E
:1000A00000000000E11D000800000000E11D000844
:1000B0000000000000000000000000000000000040
:1000C00010B5064C2378002B07D1054B002B02D02E
:1000D000044800E000BF0123237010BDA4000020ED
:1000E00000000000B4260008044B10B5002B03D01C
:1000F0000349044800E000BF10BDC04600000000F6
:10010000A8000020B42600080023C25C0133002AA6
:10011000FBD1581E70470000002243088B4274D365
:1001200003098B425FD3030A8B4244D3030B8B42F8
:1001300028D3030C8B420DD3FF22090212BA030C01
:100140008B4202D31212090265D0030B8B4219D3E2
:1001500000E0090AC30B8B4201D3CB03C01A524102
:10016000830B8B4201D38B03C01A5241430B8B424A
:1001700001D34B03C01A5241030B8B4201D30B0333
:10018000C01A5241C30A8B4201D3CB02C01A52415A
:10019000830A8B4201D38B02C01A5241430A8B421D
:1001A00001D34B02C01A5241030A8B4201D30B0206
:1001B000C01A5241CDD2C3098B4201D3CB01C01A20
:1001C000524183098B4201D38B01C01A524143092A
:1001D0008B4201D34B01C01A524103098B4201D318
:1001E0000B01C01A5241C3088B4201D3CB00C01A85
:1001F000524183088B4201D38B00C01A52414308FD
:100200008B4201D34B00C01A5241411A00D2014621
:10021000524110467047FFE701B5002000F006F894
:1002200002BDC0460029F7D076E770477047C04648
:1002300010B5040000F0EAFBFA218900FFF76CFF1B
:1002400000F066F8012000222100404200F030F862
:10025000002010BD1023064A10B5116800200B4382
:100260001360FFF7E5FF01F029FD002010BDC04637
:1002700000200240024A1368013313607047C046F1
:10028000FC000020014B18687047C046FC000020AD
:1002900037B50190FFF7F6FF019C0500631C5A1E5D
:1002A0009341E418FFF7EEFF401BA042FAD337BD9D
:1002B00070B58901002814DA0F23C0B20340083B4F
:1002C000114A9B089B009B18032210409040FC326F
:1002D0001500114085408140DC69AC432143D96160
:1002E00070BD032583082840A840FC352E00074A2E
:1002F0009B009B18C02286402940814092009C5858
:10030000B44321439950EBE700ED00E000E100E049
:10031000094A431E012093420DD8C021074A0848CC
:100320005360036A09061B021B0A0B430362002089
:100330000723906013607047FFFFFF0010E000E0AC
:1003400000ED00E0F0B50B6887B002930023019147
:10035000029ADA4001D107B0F0BD01229A4003921F
:100360000399029A0A40009200D18CE0019A102170
:10037000526816008E43022E0ED107251D40AD0097
:100380000139A940DC08A4000419276A8F430199A8
:100390000969A9400F43276203245F00BC40E4437E
:1003A0000568013E2540AC4603251540BD40614629
:1003B0000D430560012E0FD801998668CD6826404F
:1003C000BD40354385604668039915098E43012178
:1003D0000D409D4035434560C56801992C408D68AE
:1003E0008021BD4049052C43C4600A424BD0012105
:1003F000264C0326A5691E400D43A561A4699D08EE
:100400000C400594059C0F242149AD00B6006D18E1
:10041000B4409021AF68C905A743002488420CD09E
:100420001C490134884208D01B490134884204D059
:100430001A490334884200D1023CB44000993C433D
:100440000E00AC60164CCD4327683E43D10301D467
:100450003E002E4026606768009E3E43910301D413
:100460003E002E406660A768009E3E43D10201D444
:100470003E002E40A660E668009F3743920201D4FA
:100480002E403700E760013362E7C04600100240AB
:10049000000001400004004800080048000C00482B
:1004A00000040140002A01D0816170478162FCE7AD
:1004B0004369594041617047F0B5036885B0050054
:1004C000DB072FD42B689B0700D581E02B681B0727
:1004D00000D5BCE02B685B0700D5DFE02B68DB06AE
:1004E0001AD56A69B54C0423012A00D04BE1616B2F
:1004F00002260B436363636B1A436263FFF7C2FE1A
:100500000700636B334200D136E1F821626BAB69BF
:100510008A43DB0013436363296A002900D059E151
:10052000002013E00C21A54C62680A40042A06D082
:1005300063680B40082B0BD16368DB0308D5236885
:100540009B03BFD56B68002BBCD1012005B0F0BD6B
:100550006B68012B13D1802322685B021343236055
:10056000FFF790FE80260700B60223683342A9D128
:10057000FFF788FEC01B6428F7D90320E6E7002BAD
:1005800016D123688E4A80261340236023688D4A43
:10059000B60213402360FFF775FE0700236833425D
:1005A00000D18FE7FFF76EFEC01B6428F6D9E4E7A1
:1005B000052B05D180232268DB0213432360CAE7A1
:1005C00023687F4A1340236023687E4A1340C6E7AE
:1005D0000C227A4C6368134206D063681340082BE0
:1005E00010D16368DB030DD423689B0702D5EB6849
:1005F000012BAAD1F82122682B698A43DB0013431F
:10060000236063E7EA680123002A0FD022680226EC
:1006100013432360FFF736FE070023683342E9D116
:10062000FFF730FEC01B0228F7D9A6E72268022692
:100630009A432260FFF726FE07002368334200D169
:1006400044E7FFF71FFEC01B0228F6D995E7EA69C9
:1006500001235A4C002A10D0626A022613436362B7
:10066000FFF710FE0700636A334200D032E7FFF75E
:1006700009FEC01B0228F6D97FE7626A02269A4368
:100680006262FFF7FFFD0700636A334200D121E792
:10069000FFF7F8FDC01B0228F6D96EE78022002183
:1006A000464C5205E3690091134208D1E3691343B4
:1006B000E361E36913400393039B012300938027C5
:1006C000414E7F0033683B4206D0AB68012B13D10B
:1006D000226A1343236230E033683B433360FFF701
:1006E000D1FD019033683B42EFD1FFF7CBFD019B79
:1006F000C01A6428F6D940E70122002B14D1236ADE
:10070000022793432362236A033293432362FFF752
:10071000B9FD0600236A3B4225D0FFF7B3FD2B4B02
:10072000801B9842F6D928E7052B0BD1216A013BA3
:100730000B432362236A1A432262FFF7A3FD0227B9
:1007400006000DE0236A934304222362236A934345
:10075000C0E7FFF797FD1D4B801B984200D90CE7BF
:10076000236A3B42F5D0009B012B00D0B6E6E3693B
:10077000174A1340E361B1E6FFF784FDC01B02286E
:1007800000D8BEE6F9E6053203D1626B9A43626394
:10079000BBE6626B0226134301226363636B9343E0
:1007A0006363FFF76FFD0700636B334200D1B3E66D
:1007B000FFF768FDC01B0228F6D9DEE600100240F4
:1007C000FFFFFEFFFFFFFBFF0070004088130000EB
:1007D000FFFFFFEF0C22264C012063681340082B1B
:1007E00000D1B3E62368234A1340236002292FD1A6
:1007F000FFF748FD80260700B6042368334221D165
:100800000F22E36A9343EA6A1343E362696AAB6ABD
:1008100062680B43184980250A40134363608023B4
:1008200022685B0413432360FFF72CFD0600AD0430
:1008300023682B4200D073E6FFF724FD801B0228BB
:10084000F6D99AE6FFF71EFDC01B0228D5D994E61B
:10085000FFF718FD80250600AD0423682B4200D168
:100860005EE6FFF70FFD801B0228F6D985E6C0463D
:1008700000100240FFFFFFFEFFFFC2FF70B5144CE7
:1008800088B010222100684601F0D6FA210004AD9C
:1008900010221031280001F0CFFA0C220D4E73689F
:1008A0001A40082A11D10F206A46990C0140545C65
:1008B000F26A0240A95CDB0305D50748FFF72CFC70
:1008C000604308B070BD0548FAE70348F9E7C04641
:1008D000CC2600080010024000127A0000093D00FA
:1008E000F7B50122434C060023680F0013408B42EA
:1008F0001CD33268930723D4D30729D40123226859
:100900001A40974267D333683B4C5B076AD4FFF7C2
:10091000B5FF6368394A1B061B0FD35CD840384BC0
:1009200018600020FFF784FC002008E02368934350
:100930000B432360236813409942DAD00120FEBDA7
:10094000F0202D494B688343B06803434B60D3E7E5
:10095000294D72682B68012A1AD19B03EED5032119
:100960006B688B4313436B60FFF78CFC73680190DB
:10097000012B15D10C226B681340042BBED0FFF75E
:1009800081FC019BC01A1F4B9842F3D90320D6E784
:10099000022A02D19B01E2D4D0E79B07DFD4CDE746
:1009A000022B12D00C226B681342A7D0FFF76AFC0F
:1009B000019BC01A134B9842F4D9E7E7FFF762FC9A
:1009C000019BC01A0F4B9842E0D80C226B68134071
:1009D000082BF3D192E722689A43226022681A42D8
:1009E000ACD190E76368084A1340F2681343636030
:1009F0008DE7C04600200240001002405727000843
:100A00003C00002088130000FFF8FFFF014B18682E
:100A10007047C0463C000020F0B5036885B0050073
:100A2000DB0328D580220021374C5205E369009171
:100A3000134208D1E3691343E361E369134003936D
:100A4000039B012300938027304E7F0033683B4295
:100A500026D0C022236A920013402D4E32D1236A41
:100A60001E406B681E43009B2662012B03D1E36985
:100A7000284A1340E3612A68D30706D50320224998
:100A80000B6B8343A86803430B630020930617D5C1
:100A900010211D4A136B8B43E9680B4313630FE06E
:100AA00033683B433360FFF7EDFB019033683B4213
:100AB000CFD1FFF7E7FB019BC01A6428F6D90320CA
:100AC00005B0F0BD69680A409342C8D08023226A0D
:100AD000206A11005B0203432362236A0E483140FF
:100AE000034023622162D307B9D5FFF7CBFB070090
:100AF0000222236A1342B2D1FFF7C4FB074BC01B8B
:100B00009842F5D9DBE7C046001002400070004073
:100B1000FFFCFFFFFFFFFFEFFFFFFEFF881300005A
:100B2000E021036810B55A688A435A6082224168FE
:100B3000520091420CD18021826809028A4203D07E
:100B40008021C9008A4203D140211A688A431A6071
:100B50008021826A89018A4206D11968074C2140A6
:100B6000196019680A431A60030001225D331A7084
:100B700000235C300370032010BDC046FFDFFFFF81
:100B8000F8B505000C00160080272B6898683840DF
:100B900006D0621CFAD0002C03D12800FFF7C0FF5A
:100BA000F8BDFFF76FFB801B8442EED8F5E7F0B588
:100BB000C02706000D00140085B00193FF0002ABB2
:100BC0003168DA1D886828400CD0BD4203D10B7B08
:100BD000DBB213701378631CF4D0002C04D1300006
:100BE000FFF79EFF05B0F0BDFFF74CFB019BC01A5D
:100BF0008442E4D8F3E770B513000D0016000A0034
:100C0000C02149010400FFF7D2FF002805D02023AE
:100C1000226E0320134323660FE0320029002000D8
:100C2000FFF7AEFF0028F2D1C02133002A00C9002F
:100C30002000FFF7BCFF0028E9D170BDF8B5822382
:100C40001700426804000E005B009A420DD180221A
:100C500083681202934203D08022D200934204D1CF
:100C60004021226813688B4313603A003100200052
:100C7000FFF786FF051E05D02023226E03251343B0
:100C8000236616E0822362685B009A4211D18022BB
:100C9000A3681202934203D08022D200934208D16B
:100CA000C0213B003200C9002000FFF780FF002870
:100CB000E2D12800F8BDF0B51F00030087B05C3317
:100CC000019202931B7804000D000226012B00D133
:100CD0007AE00123029A1370FFF7D4FA23005D3300
:100CE000009003931B78DBB2012B67D11E00002D0F
:100CF00064D0019B002B61D00323039A13706A46D2
:100D000092880023A2876A4692882366E287A21D02
:100D10002364A56302329387D3872365E36480232A
:100D2000A2681B029A4205D180232268DB01116868
:100D30000B431360402223681968114202D11968DD
:100D40000A431A60E021E068C9006268884247D916
:100D5000002A02D0E28F012A06D12A880235DA6001
:100D6000E38F013B9BB2E3870226E38F002B16D172
:100D7000009A39002000FFF73EFF002800D06CE009
:100D8000A368002B06D105932368DA6805929B6857
:100D90000593059B266E731E9E41F6B20EE02368F6
:100DA0009A68324207D02A880235DA60E38F013B25
:100DB0009BB2E387D9E7002F09D103260123039AC9
:100DC00013700023029A1370300007B0F0BD7B1C33
:100DD000CBD0FFF757FA009BC01A8742C5D8ECE783
:100DE000002A02D0E28F012A09D1E28F012A19D903
:100DF0002A880235DA60E38F023B9BB2E387022642
:100E0000E38F002BB4D023689A6832421AD0E28F65
:100E1000012A0FD92A880235DA60E38F023B9BB2A0
:100E2000E387EDE72A7801351A73E38F013B9BB224
:100E3000E387E4E72A7801351A73E38F013B9BB21D
:100E4000E387DDE7002FB8D07B1CD9D0FFF71AFA73
:100E5000009BC01A8742D3D8AFE7202323668FE7D1
:100E6000F7B51F00030000925C331A7804000D00F0
:100E70000226012A00D1AEE001221A70FFF702FA21
:100E8000230001905D331B786168DBB2012B0BD02E
:100E900082225200914200D096E0A268002A00D03F
:100EA00092E0042B00D08FE00126002D00D18BE0D2
:100EB000009B002B00D187E0002F00D184E02300AD
:100EC0005D331A78042A01D005221A70009A002393
:100ED00022642200E026A01D08322366D787C78738
:100EE000E068E3642365A563E787A787F6002368C6
:100EF000B04202D8D28F012A31D95A68714E32409D
:100F00005A60402223681E68164202D11E6832438E
:100F10001A60E0222600D200083690425DD90029EE
:100F200002D0E28F012A06D12A880235DA60E38FE7
:100F3000013B9BB2E3870127E38F002B14D1F38F92
:100F4000002B11D1019A08992000FFF754FE0028C8
:100F500000D0B3E0266E731E9E41F6B234E08022CC
:100F60005E6852013243CBE7002F0FD0E38F002B96
:100F70000CD0022123689A680A4207D000272A88E9
:100F80006D18DA60E38F013B9BB2E387F38F002B90
:100F90000FD0012123689A680A420AD0DB68009AC0
:100FA0000F001380130002330093F38F013B9BB2B9
:100FB000F387089B0133BFD0FFF764F9019BC01A88
:100FC000089B8342B8D80326230001225D331A70A0
:100FD00000235C3423703000FEBD002902D0E28F74
:100FE000012A09D1E28F012A4CD92A880235DA6018
:100FF000E38F023B9BB2E3870127E38F002B03D1F2
:10100000F38F002B00D19DE7002F12D0E38F002B30
:101010000FD0022123689A680A420AD0E28F012A7F
:1010200038D92A886D18DA60E38F023B9BB2E387D8
:101030000027F38F002B1AD0012123689A680A42F7
:1010400015D0F28F8A422DD9DA68009901270A80DB
:101050000A0002320092F28F023A92B2F287F28FC5
:10106000BA4204D88022596852010A435A60089B48
:101070000133C2D0FFF706F9019BC01A089B8342D7
:10108000BBD8A0E72A7801351A73E38F013B9BB2E6
:10109000E387B1E72A7801351A73E38F013B9BB2EE
:1010A000E387C5E71B7B009A01271370F38F013B91
:1010B0009BB2F387130001330093D8E72023236604
:1010C00048E7C046FFEFFFFFF0B51F00822387B05F
:1010D0000392426804000E005B009A420FD18368BD
:1010E000002B0CD1030004225D331A700097039B80
:1010F0000A00FFF7B5FE0500280007B0F0BD230089
:101100005C3305931B780225012BF5D00123059A4A
:101110001370FFF7B7F8220004905D321378DBB24A
:10112000012B5DD11D00002E5AD0039B002B57D000
:1011300004236946137000238989A21D236626644F
:10114000D187694689890232D187E022E168A363A9
:10115000A387E387E3642365D200236891422AD9F9
:101160005A68364802405A608023A2681B029A429D
:1011700004D1226832481368034013604023226878
:101180001068184202D1106803431360E023250061
:10119000DB00083599423FD8EB8F002B10D1049A21
:1011A00039002000FFF74AFD002844D1256E6B1E50
:1011B0009D41EDB214E08022586852010243D2E70B
:1011C000012123689A680A4207D01B7B3370EB8F9A
:1011D0007618013B9BB2EB87DEE7002F07D1032592
:1011E00001235D3423700023059A137084E77B1C70
:1011F000D2D0FFF747F8049BC01A8742CCD8EEE75D
:10120000012123689A680A420AD0DB683380EB8F99
:101210000236013B9BB2EB87EB8F002BF0D1BEE790
:10122000002FDCD07B1CF7D0FFF72CF8049BC01AF2
:101230008742F1D8D3E720232366B7E7FFEFFFFF0C
:10124000FFBFFFFFF8B504000E0015001F00226865
:10125000D36933409B1B59424B41AB4201D0002024
:1012600018E0069B0133F3D0069B002B13D12368B3
:101270000C491A6803200A401A609A68A331FF31AA
:101280008A439A602200202369321370537000232E
:1012900068342370F8BDFEF7F5FF069BC01B834240
:1012A000D5D2E4E75FFEFFFFF0B5070085B00393FA
:1012B00069373B7804000D0016000220202B46D130
:1012C0000138002943D0002A41D08023A2685B0165
:1012D0009A4204D12369002B01D1014237D1230066
:1012E00068331A780220012A31D001221A700023B3
:1012F000E36621333B70FEF7C5FF230050331E80A9
:101300005E80802602907601210052310A8892B2D6
:10131000002A0DD1039B402100932000029BFFF780
:1013200091FF002812D1202368343B7020700EE01A
:101330000B880022013B9BB20B80039B8021009312
:101340002000029BFFF77EFF002802D0032005B09B
:10135000F0BDA3682268B34208D12369002B05D1F0
:101360002B880235DB05DB0D1385CDE72B780135A6
:101370001385C9E773B50500124C2E0AA368984778
:1013800023699847226A2B0C002A02D0626A002A3D
:1013900011D1D8B2E3699847F0B2E3699847E8B24F
:1013A000E3699847A3699847050063699847E3682C
:1013B0009847280076BD01A8037046708570032108
:1013C0009047EFE704000020F7B5134C0500A36831
:1013D0000F009847236998470421636A0D432A0C3C
:1013E0002E0A002B10D1D0B2E3699847F0B2E3691E
:1013F0009847E8B2E36998473800E369984763691A
:101400009847E3689847F7BD01A802704670857059
:10141000C7709847F3E7C04604000020F0B5060007
:101420001A4C85B0A36817000D00984723699847A8
:10143000330A0193236A320C002B02D0636A002B1B
:1014400017D1D0B2E36998476B461879E36998479A
:10145000F0B2E3699847EF19BD4205D16369984737
:10146000E368984705B0F0BDA36998472870013537
:10147000F2E703A802706A4612798670427003216F
:10148000984739002800236A9847E7E704000020BE
:10149000F0B51B4C85B0A36806000D0017009847F7
:1014A000236998470420636A0643310A320C01918C
:1014B000002B17D1D0B2E36998476B461879E369DE
:1014C0009847F0B2E3699847EF19BD4205D16369C7
:1014D0009847E368984705B0F0BD2878E3699847D6
:1014E0000135F2E703A802706A46127986704270ED
:1014F0000321984739002800636A9847E7E7C04608
:1015000004000020F8B5050008282CD84401083450
:10151000671CFF3710213800FFF756FF3800FFF730
:1015200029FF061EFAD180239B001F21E018FFF738
:101530004BFF0123AB40DB430C491BB20A881A4026
:101540000A800B490A8813400B800A4B6A00D65266
:10155000094B5E55C0239B00E018FFF70BFF0028E6
:10156000F8D10130F8BD01204042FBE7C000002067
:10157000C2000020CC000020C4000020F0B5040010
:1015800085B00F0016001D00082800D97FE0012952
:1015900005D0002901D004290CD9052078E0F020DD
:1015A0000422000103A9FFF739FF039B0320002B4E
:1015B00000D16DE06B0759D4002D03D0012F52D01C
:1015C000022F55D02000FFF79DFF630108330193E0
:1015D00029000F23994339430198FFF7F5FE002EA8
:1015E00007D12C4A2C491688731C9BB28B424AD0D7
:1015F00013808022019BD2009818310AFFF7E4FE85
:10160000A022019BD200F1B29818FFF7DDFE019BEA
:1016100001215E1CFF363000FFF7D6FE3000FFF7D9
:10162000A9FE0028FAD101263300A340DB43354050
:10163000A5401A4A1BB2118819400D43184915805C
:101640000A881340174A0B8063009852164B1855AE
:10165000C022019B92009818FFF78CFE0028F7D05B
:1016600060B205B0F0BD21231D42ABD106200FE0D2
:10167000AB0602D56BB2002BF8DAEB06A2D56BB243
:10168000002B9FDBF2E7094B094E1380B1E70120E5
:101690004042E6E700000020F0FF0000C00000200C
:1016A000C2000020CC000020C400002000C0FFFFCA
:1016B000EFFF000070470078C0B2704701707047BC
:1016C00000207047704770477047704770477047F9
:1016D000064B002801D0002904D1054A1A61054AA9
:1016E0005A61704718615961FBE7C0460400002049
:1016F000CF160008B5160008084B1A88920500D4CA
:10170000FEE7002801D0002904D1054A9A61054A64
:10171000DA6170479861D961FBE7C0460400002098
:10172000C1160008C5160008084B1A88920500D497
:10173000FEE7002801D0002904D1054A1A62054AB3
:101740005A62704718625962FBE7C04604000020E5
:10175000C9160008C7160008F0B590278026A025F6
:10176000F02487B03F0104A9380076000622FFF775
:1017700055FEED0001A930000422FFF74FFE2401C1
:1017800002A928000422FFF749FE042203A9200031
:10179000FFF744FE80210020FFF716FE0020FFF730
:1017A000E9FD04A938000622FFF772FE01A9300006
:1017B0000422FFF76DFE02A928000422FFF768FE4D
:1017C000042203A92000FFF763FE07B0F0BD00006C
:1017D00070B505000C00FFF7BFFF002D03D1002CF2
:1017E0001BD100200AE029002A00002308311078CC
:1017F000C3185BB2102B02DD0120404270BD0132E4
:101800009142F4D1104E29783000FFF7DDFD0F4BE7
:10181000203601359E42F6D1E1E721002200002367
:1018200008311078C3185BB2102BE5DC013291420D
:10183000F7D1074D21782800FFF7C6FD024B203570
:1018400001349D42F6D1CCE7081F000008200000BB
:10185000081E000010B501000400902006220001BF
:10186000FFF716FE210080200E3104224000FFF712
:101870000FFE2100A0200A310422C000FFF708FE5D
:10188000F020A11D04220001FFF702FEA27C064BFE
:101890001A70E27C5A70227D9A70627DDA70A27DA5
:1018A000024B1A7010BDC046DD000020DC00002095
:1018B000F02010B5042208490001FFF7E9FDA0203F
:1018C00004220649C000FFF7E3FD802004220449FA
:1018D0004000FFF7DDFD10BDE5000020E90000201D
:1018E000E100002010B580210020FFF76DFD0020F1
:1018F000FFF740FDFFF7DCFF9020062202490001C0
:10190000FFF7C6FD10BDC0460001002010B58021C4
:101910000020FFF759FD0020FFF72CFD9020062244
:1019200002490001FFF7B4FD10BDC04600010020D0
:1019300070B5094B094D0A4C2B600A4B0A4E2360C7
:101940000A4B1E60002800D02860002900D02160CA
:10195000002A00D01A6070BDB11800082C000020C9
:1019600034000020E51800080D19000830000020A0
:10197000014B18687047C0463800002010B500229F
:1019800002210248FEF78EFD10BDC046000400484B
:1019900010B5012202210248FEF784FD10BDC046A9
:1019A00000040048012310B50A005B420100024810
:1019B000FFF78AFB10BDC046D401002013B56B466B
:1019C000DC1D20000121FFF7EDFF207816BD00008F
:1019D000012310B50A005B4201000248FFF76BF9D2
:1019E00010BDC046D401002007B56B46D87107333F
:1019F00001211800FFF7ECFF07BD00000FB48021A4
:101A000000B5C3B044AB04CB490002A8019300F079
:101A10004FFA02A8FEF778FB012382B25B4202A9CB
:101A20000348FFF741FC43B008BC04B01847C04668
:101A30006401002010B5FFF79BFF01000348FFF78A
:101A4000DDFF0122024B1A7010BDC046F4260008CB
:101A5000ED00002010B50248FFF7D0FF10BDC046D2
:101A60002127000830B5012289B002212848FEF75D
:101A700019FD28492848FFF72BFE28492848FFF779
:101A80003BFE28492848FFF74FFE082227496846B1
:101A900002AC00F0D1F969466846FFF799FE1722BB
:101AA0000021200000F0D1F9EA2311229020022524
:101AB00023706270637192182A3BA270A371113275
:101AC000183BE270E3711132A33B227163723E3A1C
:101AD000FA3321000001A372E3722373A575FFF7A7
:101AE000D7FC1348134A0100FFF722FF2000FFF73D
:101AF000B1FE01210023104A2800FFF73FFDC1B2CB
:101B0000A94202D00D48FFF779FF09B030BDC046A9
:101B100000040048911900087D190008E91900081F
:101B2000BD190008D1190008A5190008EC26000805
:101B3000351A0008551A0008882A00003A270008BC
:101B4000FA2010B58000FEF7A3FB10BD30B51024BD
:101B500095B03022002108A800F077F9220000217A
:101B6000684600F072F92200002104A800F06DF927
:101B70000323089380235B021193802301250C9497
:101B80005B030E3C08A81094129309950B95FEF781
:101B900093FC0723019400242900684600930294D3
:101BA0000394FEF79DFE212304A804930694079452
:101BB000FEF732FF15B030BD30B589B0FEF74AFBF5
:101BC000FFF7C4FF1422002103A800F03EF9802093
:101BD000374BC00359690024014359615A690125F3
:101BE000024080200092009A5969800201435961A5
:101BF00080215A69C902024090200192019A5A69D3
:101C0000C0050A435A615B6900220B400293102110
:101C1000029BFEF747FC002202212648FEF742FC09
:101C200010239020039303A90133C0050493059466
:101C30000694FEF787FB022303A91E48039304952D
:101C400005940694FEF77EFB2A0004211A48FEF74D
:101C500029FCFA208000FEF71BFB22000421164815
:101C6000FEF720FCFA208000FEF712FB2A00042178
:101C70001148FEF717FC04210F48FEF719FCFA2063
:101C80008000FEF705FB04210B48FEF711FCFA204B
:101C90008000FEF7FDFA04210748FEF709FCFFF774
:101CA000E1FEFFF74DFF04210348FEF701FCF8E7D2
:101CB0000010024000040048000C004801200A4BBC
:101CC00082B099690143996180219A69490502406E
:101CD0000092009ADA690A43DA61DB690B400193EA
:101CE000019B02B07047C046001002407047FEE7FB
:101CF0007047704710B5FEF7BDFA10BD0A4B10B51E
:101D000019680200002901D108491960694618685C
:101D100082188A4206D900F065F80C23036001207E
:101D2000404210BD1A60FCE7F00000203C02002099
:101D30000121114B11481A680A431A605A6802407F
:101D40005A601A680E4802401A601A680D4802402C
:101D50001A605A680C4802400F205A60DA6A8243BF
:101D6000DA621A6B094802401A635A6B8A435A6353
:101D700000229A607047C046001002400CB8FF086D
:101D8000FFFFF6FEFFFFFBFFFFFFC0FFECFEFFFFC4
:101D90000D4885460D480E490E4A002302E0D458EE
:101DA000C4500433C4188C42F9D30B4A0B4C0023A3
:101DB00001E013600432A242FBD3FFF7B9FF00F049
:101DC00017F8FFF7F9FEFEE70010002000000020E2
:101DD000A400002004280008A40000203C020020E9
:101DE000FEE70000014B18687047C0464000002025
:101DF00070B500260C4D0D4C641BA410A64209D1F1
:101E0000002600F057FC0A4D0A4C641BA410A642A1
:101E100005D170BDB300EB5898470136EEE7B3002B
:101E2000EB5898470136F2E7FC270008FC2700082A
:101E3000FC27000800280008002310B59A4200D1B2
:101E400010BDCC5CC4540133F8E703008218934200
:101E500000D1704719700133F9E730B514009BB019
:101E600005001A00002C05DA8B2303600120404294
:101E70001BB030BD822368469B0083810023009104
:101E800004919C4200D0631E02930593012369468E
:101E90005B42CB8128001E9B00F0D6F8431C01DA80
:101EA0008B232B60002CE3D00023009A1370DFE714
:101EB00007B5009313000A00010002480068FFF70D
:101EC000CCFF0EBD40000020032370B5CD1C9D4308
:101ED000083506000C2D1ED20C25A9421DD8300055
:101EE00000F06DFB254A14682100002919D1244C0B
:101EF0002368002B03D1300000F032FB2060290062
:101F0000300000F02DFB431C2CD10C23300033603B
:101F100000F056FB03E0002DDFDA0C2333600020D5
:101F200070BD0B685B1B1AD40B2B03D90B60CC184C
:101F3000256003E08C420ED163681360300000F02E
:101F40003FFB200007220B30231D9043C31AE7D02C
:101F50005A42E250E4E74B6863600C00EEE70C0085
:101F60004968C2E70323C41C9C43A042E0D0211A65
:101F7000300000F0F5FA431CDAD1C6E7F400002087
:101F8000F8000020F0B58E6885B007000C000392C1
:101F900001939E4239D890238A89DB001A4234D0BB
:101FA0000325096923685B1A0293636902985D43FC
:101FB000EB0F5D19019B6D1001331B18AB4200D96B
:101FC0001D00530532D529003800FFF77DFF061E9E
:101FD00009D10C233B6040230120A28940421343D6
:101FE000A38105B0F0BD029A2169FFF725FFA389FF
:101FF000144A1A4080231343A381029B2661F618DA
:1020000026606561019EED1AA560019BB34200D276
:102010001E0032000399206800F0BFFAA368002078
:102020009B1BA36023689E192660DAE72A0038000C
:1020300000F012FB061EE0D12169380000F0C2FA60
:10204000C7E7C0467FFBFFFFF0B59FB00290059346
:102050008B890F0016001B0611D50B69002B0ED1C2
:102060004021FFF731FF38603861002805D10C238B
:10207000029A013813601FB0F0BD40237B6100233A
:1020800006AD6B6120336B761033AB76340023786A
:10209000002B47D1A31B04930DD0A31B32003900A2
:1020A0000298FFF76FFF431C00D1B5E06A69049BFB
:1020B000944663446B612378002B00D1ACE001228D
:1020C000002352426A6002A95432521801342B6034
:1020D000EB60AB601370AB65584E05222178300081
:1020E00000F050FA621C002820D12968CB0604D5E4
:1020F000532302AE20309B1918700B0704D55323CD
:102100002B2002AE9B19187023782A2B16D00020A2
:102110000A21099B2278303A092A55D9002815D07E
:10212000099313E0252BB5D00134B0E70123801BC0
:102130008340296814000B432B60CDE7059B181DD5
:102140001B680590002B39DB0993140023782E2B94
:102150000BD16378621C2A2B3ED1059B02341A1DD9
:102160001B680592002B34DB0793354E2178032240
:10217000300000F007FA002806D04023801B83407F
:102180002A68013413432B60217806222D48661CEF
:10219000297600F0F7F9002846D02B4B002B2FD1E1
:1021A0002968059B0722C90528D59B189343083346
:1021B00005936B69039A9B186B6167E75B42EB6061
:1021C00002230B432B60C0E74B4301349B180120D3
:1021D000A0E701235B42C7E7002314000A201A008E
:1021E0006B6021783039092903D9002BBDD00792C3
:1021F000BBE74243013452180123F2E70733D5E726
:1022000005AB00933A00114B2900029800E000BF93
:102210000390039B0133CCD1BB890B985B0600D4A0
:1022200029E70120404226E705AB00933A00074B1F
:102230002900029800F07AF8EAE7C046C8270008AB
:10224000CE270008D227000800000000851F0008E4
:10225000F7B5150001938A680B6900900C00934252
:1022600000DA130022002B6043321278002A01D0DA
:1022700001332B6023689B0602D52B6802332B6049
:10228000062723681F4027D0230043331B785A1E9C
:1022900093412268920630D422000199433200987B
:1022A000089EB047431C25D0062320682A68E168B1
:1022B00003400025042B03D18D1AEB43DB171D408F
:1022C000A3682269934201DD9B1AED180027BD42E5
:1022D00020D1002010E00137E3682A689B1A9F4252
:1022E000D2DA22000123193201990098089EB047E2
:1022F000431CF0D101204042FEBD3020E1184331A3
:10230000087021005A1C45310978A2184332023363
:102310001170C1E7220001231A3201990098089E2A
:10232000B047431CE6D00137D1E70000F0B58BB0D1
:1023300006920A0043320793059004920A7E0C002D
:10234000109B6E2A00D18FE017D8632A2CD008D8B2
:10235000002A00D199E0582A54D026004236327023
:1023600029E0642A01D0692AF7D121681A68080691
:1023700023D5111D1960156825E0732A00D188E066
:1023800008D86F2A29D0702AE7D1202209680A4389
:10239000226003E0752A20D0782ADED1220078213D
:1023A000453211706C4A30E00E001A684236111D39
:1023B000196013683370012379E04906D9D5111DDE
:1023C00019600023D55E002D03DA2D23049A6D4297
:1023D0001370624B0A2703932FE0206819680506E3
:1023E00003D5081D18600D6805E04006F9D50D6895
:1023F000081D1860ADB2594B082703936F2A18D0F7
:102400000A2716E045310A70544A03921A68216877
:10241000101D18601568080622D5CB0702D52023A9
:10242000194321601027002D03D1202322689A43ED
:1024300022602300002243331A706368A360002BDC
:102440005CDB0422216891432160002D58D1049E59
:10245000002B64D02600039B42361B7833705EE06D
:102460004806DAD5ADB2D8E709681A68080605D576
:10247000111D1960136862691A6006E04906F7D5F4
:10248000111D19601368A28A1A800023049E23611B
:1024900054E01A68111D1960166800216268300046
:1024A00000F070F8002801D0801B60606368236131
:1024B0000023049A137041E02369320006990598BD
:1024C000079DA847431C43D0236800259B070FD4D2
:1024D000099BE06898423DDA18003BE022000123A6
:1024E000193206990598079EB047431C30D0013534
:1024F000E368099A9B1A9D42F0DBE9E7002DA9D019
:10250000049E28003900FDF78DFE039B013E5B5CB5
:10251000280033703900FDF7FFFD051EF1D1082FAB
:1025200009D12368DB0706D563682269934202DC80
:102530003023013E3370049B9B1B2361079B09AA38
:1025400000932100069B0598FFF782FE431CB3D140
:10255000012040420BB0F0BDEA270008D92700084F
:10256000002370B5064C050008002360FFF7C6FB8A
:10257000431C03D12368002B00D02B6070BDC046E4
:1025800038020020C9B28218904201D10020704761
:1025900003788B42FBD00130F6E710B5884202D9B0
:1025A0008B18984208D300239A4207D0CC5CC454BD
:1025B0000133F9E78B5C8354013AFBD210BD7047BD
:1025C0007047000070B50500002910D00C1F23686B
:1025D000002B00DAE4182800FFF7F1FF1D4A13680A
:1025E000002B05D1636014602800FFF7E9FF70BD80
:1025F000A34209D9216860188342F3D118685B6847
:1026000041182160EEE713005A68002A01D0A24267
:10261000F9D919685818A0420BD120680918581820
:1026200019608242E0D110685268411819605A60FE
:10263000DAE7A04202D90C232B60D5E721686018A5
:10264000824203D1106852684118216062605C6068
:10265000CAE7C046F4000020F8B507000D001600D8
:10266000002905D11100FFF72FFC04002000F8BD60
:10267000002A03D1FFF7A6FF3400F7E700F012F8B5
:102680002C008642F2D931003800FFF71DFC041EF1
:10269000ECD029003200FFF7CFFB29003800FFF70C
:1026A00091FFE3E70B1F1B68181F002B01DA0B5883
:1026B000C0187047F8B5C046F8BC08BC9E467047C5
:0C26C000F8B5C046F8BC08BC9E46704748
:1026CC0002030405060708090A0B0C0D0E0F101067
:1026DC000102030405060708090A0B0C0D0E0F1066
:1026EC00020202020202020243616C6C6261636BC1
:1026FC003A2049502061737369676E656421204CE0
:10270C0065617365642074696D653A202564207376
:10271C0065630D0A0043616C6C6261636B3A20491E
:10272C005020636F6E666C696374210D0A00736FC1
:10273C00636B65742829206661696C65642C206361
:10274C006F6465203D2025640D0A00000000000028
:10275C000000000102030406070809000000000045
:10276C00000000000000000000000000000000005D
:10277C00000000000000000000000000000000004D
:10278C00000000000000000000000000000000003D
:10279C00000000000000000000000000000000002D
:1027AC00000000000000000000000000000000001D
:1027BC00000000000000000000000000232D302B62
:1027CC002000686C4C006566674546470030313226
:1027DC00333435363738394142434445460030317D
:1027EC0032333435363738396162636465660000DC
:0427FC00E9000008E8
:04280000C10000080B
:1028040000C000000102573535303000CB160008F7
:10281400CD160008CF160008B5160008B716000834
:10282400BD1600080000000000000000B1180008F8
:102834000D190008E5180008FFFFFFFF00127A00D9
:10284400440000200000000088270008A827000892
:1028540068270008000000000000000000000000DD
:102864000000000000000000000000000000000064
:102874000000000000000000000000000000000054
:102884000000000000000000000000000000000044
:102894000000000000000000000000000000000034
:0428A4000000000030
:0400000508001D9141
:00000001FF
